:020000040800F2
:10000000D80700209901000899280008EF2000086F
:1000100095280008E1060008D92D0008000000001E
:10002000000000000000000000000000AD2B0008F0
:10003000E506000800000000152B0008AF2B0008A3
:10004000B3010008B3010008B3010008B3010008C0
:10005000B3010008B3010008B3010008B3010008B0
:10006000B30100080D070008B3010008B301000840
:10007000B3010008B3010008B3010008B301000890
:10008000B3010008B3010008B3010008B301000880
:10009000B3010008B3010008B3010008B301000870
:1000A000B3010008212C0008B3010008B3010008C7
:1000B000B3010008312C0008B3010008B3010008A7
:1000C000B3010008B3010008B3010008B301000840
:1000D000B3010008B3010008B3010008B301000830
:1000E00001070008B3010008B301000800F002F89E
:1000F00000F043F80AA090E8000C82448344AAF17F
:100100000107DA4501D100F038F8AFF2090EBAE87C
:100110000F0013F0010F18BFFB1A43F0010318473B
:10012000043A0000243A0000103A24BF78C878C18D
:10013000FAD8520724BF30C830C144BF04680C60ED
:10014000704700000023002400250026103A28BF35
:1001500078C1FBD8520728BF30C148BF0B60704739
:10016000642900F0DD80002070471FB59DE8030082
:1001700000F058F91FBD10B510BD00F02FFA114660
:10018000FFF7F3FF02F0B0FF00F04DFA03B4FFF702
:10019000F2FF03BC00F07EFA094880470948004797
:1001A000FEE7FEE7FEE7FEE7FEE7FEE7FEE7FEE727
:1001B000FEE7FEE704480549054A064B7047000084
:1001C0001D2C0008ED000008D8010020D8070020F1
:1001D000D8030020D803002070B5064600F006F9C9
:1001E000056806F10B0020F00704B4429CBF002014
:1001F00070BD2B466A68BAB11068A04210D304F1F2
:10020000080188423CBF5068586007D351681019F4
:1002100041601168091B016058601460101D70BDB9
:1002200013465268002AE7D12146284600F0E6F836
:100230000028DED170BD70B50446051F00F0D6F869
:100240000068002C14BF446870BD002C18BFAC427D
:100250003CBF20466468F8D301680A18AA4218BF58
:10026000456003D12A680546114401602868411998
:10027000A1421CBF6C6070BD616869602168084460
:10028000286070BD0FB41CB50C0007AA009001D007
:100290002044401E074B7B4469460190069800F0BD
:1002A00056F9002C03D06946002000F063F91CBC0D
:1002B0005DF814FBE50200002DE9F0410E4604460E
:1002C000002020622046E168884730B3252805D009
:1002D000D4E901219047206A401CF2E7E1682046FA
:1002E00000278847050018D0A5F14100192802D839
:1002F00020354FF400673246294620462760FFF735
:100300002FFF40B1012804D0F61D26F0070608365D
:10031000D8E7361DD6E72846DAE7206ABDE8F0813F
:100320002DE9F0410646002410687529314616A5CE
:1003300010D0AFF30080002802DA404213A507E096
:1003400031688A0701D512A502E0490704D511A535
:10035000012401E0AFF3008000210A2206F1240706
:1003600009E0B0FBF2FCB0FBF2F302FB1C00303002
:1003700078541846491C0028F3D123462A463046B3
:10038000BDE8F04100F084B8000000002D0000003E
:100390002B000000200000004FF0000200B51346C3
:1003A00094469646203922BFA0E80C50A0E80C5095
:1003B000B1F12001BFF4F7AF090728BFA0E80C5046
:1003C00048BF0CC05DF804EB890028BF40F8042B3F
:1003D00008BF704748BF20F8022B11F0804F18BFAC
:1003E00000F8012B7047704770477047004870470E
:1003F0007C010020704770477047704738B504464D
:100400000A4600206946AFF30080002808BF38BDC7
:1004100002460099204600F0BFF8012038BD0120B7
:1004200000F0D4B8F8B5AFF30080054600200C46C4
:10043000102000BF0646A819A0420DD932466946D1
:100440000020AFF30080070008BF00F0BFF800985D
:10045000A04218BF0546C419FFF7C8FF056007464C
:10046000F01D20F007004619284600F00AF8B442B3
:1004700008BFF8BDA21B31463868BDE8F84000F05F
:100480008BB800210160C0E901107047102070474F
:100490002DE9F0470D4699469246044600F124089E
:1004A0000168880604D5E06921F01001216000E0B0
:1004B0000120A84201DD471B00E00027A1697A194D
:1004C00002EB0900081AA0612078C00602D4204679
:1004D000AFF30080002608E0D4E901211AF80600F5
:1004E0009047206A401C761C20624E45F4DB207841
:1004F000C0060AD52046AFF3008006E0D4E901210A
:1005000030209047206A401C2062381EA7F1010766
:10051000F4DC07E0D4E9012118F805009047206ACF
:10052000401C2062281EA5F10105F3DC2046AFF334
:1005300000802078000602D50220BDE8F087012067
:10054000FBE7000001694A1C02610878704700B5AA
:100550008FB0CDE901310021059105497944CDE9FC
:10056000031011466846FFF7A7FE0FB000BD00005C
:10057000E5FFFFFF0A6802F8010B0A607047D1E946
:1005800000239A4202D2531C0B6010707047000087
:100590000048704774010020034640688C460028DC
:1005A00018BF88423CBF03464068F8D31868184417
:1005B000884207D00CF1030020F00700001D411A0B
:1005C000521A0146081D0A60FFF735BE10B500F04B
:1005D00039F8BDE8104000F02FB870477546FFF7B6
:1005E000D7FFAE4605006946534620F00700854612
:1005F00018B020B5FFF7DEFDBDE820404FF0000643
:100600004FF000074FF000084FF0000B21F00701FA
:10061000AC46ACE8C009ACE8C009ACE8C009ACE83D
:10062000C0098D46704710B50446AFF300802046E0
:10063000BDE81040FFF7AABD002801D000F02AB89D
:100640007047000010B5012805D0002103A000F07C
:1006500027F8012010BD09A1F8E7000053494752CF
:10066000544D454D3A204F7574206F662068656182
:1006700070206D656D6F7279000000003A2048654A
:100680006170206D656D6F727920636F7272757025
:100690007465640001491820ABBEFEE72600020025
:1006A00070B505460C460A2000E06D1C00F011F8FC
:1006B00035B128780028F8D102E0641C00F009F870
:1006C00014B120780028F8D1BDE870400A20AFF3BB
:1006D000008008B569468DF800000320ABBE08BD58
:1006E00000BFFEE7704701B500204FF0804148622F
:1006F00000BF4FF08040406A00998842F9D308BD9E
:1007000010B54FF4806000F0B5F810BD10B50820AA
:1007100000F0B0F810BD72B600BFFEE770B5044639
:1007200000F056FA06462546681C10B104480078C9
:10073000054400BF00F04CFA801BA842FAD370BDFC
:10074000400000202DE9F0410446082C46D1072046
:1007500002F0F4F805460A20FFF7C5FF072002F073
:10076000EDF8054605F04000002836D0402107206E
:1007700002F040F902223649612002F0FBF83448C9
:1007800000883449088008460088C0F308000880C3
:100790000846008803F0D0F880464FF0884102F008
:1007A000E9FF07462C4903F0DBF8064603F0A4F8FE
:1007B000284908802948007940B10020274908715C
:1007C0002448008803F0B8F82449086001230C226B
:1007D00004212048008802F005FC36E0B4F5806F63
:1007E00033D11F48007808B9012000E000201C49DF
:1007F000087008460078D0B1092000F039FC19488B
:1008000001F038F93C21184801F08AFA02F068FB3F
:100810000021084602F02CFC14A002F0B1FB1449A0
:10082000088801230022032102F0DCFB0DE03C21BB
:100830000D4801F0F3FA092000F03CFC094801F0F2
:10084000DDF802F04DFB02F079FCBDE8F08100001C
:1008500003000020060000200000B4430C0000202C
:100860002D0000209C0000202C01002052504D0043
:100870002000002010B5044604480068204020B144
:10088000024804602046FFF75DFF10BD14040140DC
:100890002DE9F8470346002294466EE14FF0010827
:1008A00008FA02F4D1F8008008EA0400A0427DD1E1
:1008B000DFF8DCA2D1F80480A8EB0A09D0453AD0D1
:1008C00014DCB8F1030F50D009DCB8F1000F31D0BF
:1008D000B8F1010F1CD0B8F1020F49D120E0B8F1F6
:1008E000110F18D0B8F1120F42D11EE0B9F5881FD0
:1008F00025D006DCB9F5803F20D0B9F5801F37D16F
:100900001AE0B9F5001F18D0B9F5041F30D117E06F
:10091000D1F80CC02DE0D1F80C8008F1040C28E0CF
:10092000D1F80C8008F1080C23E0D1F80C8008F114
:100930000C0C1EE000BF00BF00BF00BF00BF00BF27
:10094000D1F80880B8F1000F02D14FF0040C0BE091
:10095000D1F80880B8F1010F03D14FF0080C1C61E9
:1009600002E04FF0080C5C6103E04FF0000C00E087
:1009700000BF00BFFF2801D8984601E003F104083A
:100980004646FF2802D84FEA820803E0A2F1080891
:100990004FEA88084746D6F800804FF00F0909FA59
:1009A00007F928EA09080CFA07F900E088E048EAA4
:1009B0000908C6F80080D1F8048008F08058B8F122
:1009C000805F7DD100BFDFF8CC81D8F8188048F077
:1009D0000108DFF8C091C9F81880C846D8F8188017
:1009E00008F00108CDF8008000BF00BF4FEAB93819
:1009F0004FEA920958F829504FEA82784FEA18795D
:100A00004FF00F0808FA09F825EA0805DFF8888191
:100A1000434502D14FF0000816E0DFF880814345DE
:100A200002D14FF001080FE0DFF87481434502D195
:100A30004FF0020808E0DFF86C81434502D14FF027
:100A4000030801E04FF004084FEA82794FEA197970
:100A500008FA09F848EA0505DFF84C814FEA9209DF
:100A600048F82950D1F8048008F48018B8F5801FA0
:100A70000AD1DFF83881D8F8008048EA0008DFF8AA
:100A80002C91C9F8008009E0DFF82081D8F80080B7
:100A900028EA0008DFF81491C9F80080D1F8048032
:100AA00008F40018B8F5001F10D1DFF8008108F134
:100AB0000408D8F8008048EA0008DFF8F09000E069
:100AC0005AE009F10409C9F800800DE0DFF8DC8084
:100AD00008F10408D8F8008028EA0008DFF8CC9074
:100AE00009F10409C9F80080D1F8048008F400383D
:100AF000B8F5003F0ED1DFF8B480A8F10408D8F8AB
:100B0000008048EA0008DFF8A490A9F10409C9F8B8
:100B100000800DE0DFF89480A8F10408D8F8008088
:100B200028EA0008DFF88490A9F10409C9F80080D8
:100B3000D1F8048008F48038B8F5803F0ED1DFF892
:100B40006C80A8F10808D8F8008048EA0008DFF8AF
:100B50005C90A9F10809C9F800800DE0DFF84C802D
:100B6000A8F10808D8F8008028EA0008DFF83C90CF
:100B7000A9F10809C9F80080521CD1F8008028FAB0
:100B800002F8B8F1000F7FF489AEBDE8F8870000E5
:100B9000000011100010024000080140000C01404C
:100BA0000010014000140140080001400804014009
:100BB00010B5C26821EA020302EA010443EA0443D1
:100BC000036110BD0AB1016101E00B0403617047CC
:100BD00001480068704700003800002070B50446E6
:100BE0000CB9012070BD94F83D0028B9002084F8AC
:100BF0003C00204600F092F9242084F83D00206853
:100C0000006820F00100216808602068006840F456
:100C10000040216808602068006820F400402168D6
:100C2000086000F075FB05465C496068884206D89C
:100C30005B48854201D2012007E0002005E05948C9
:100C4000854201D2012000E00020012800D1C9E73F
:100C50005548B5FBF0F62068406820F03F0030436F
:100C6000216848604D496068884201D8701C07E0DF
:100C70004FF4967070434FF47A71B0FBF1F0401C62
:100C80002168096A21F03F0108432168086243494D
:100C90006068884214D8681E61684900B0FBF1F0B2
:100CA000401CC0F30B00042801D204203DE0681E64
:100CB00061684900B0FBF1F0401CC0F30B0034E068
:100CC000A06838B9681E616801EB4101B0FBF1F022
:100CD000401C0AE0681E616801EBC10202EB0111D1
:100CE000B0FBF1F0401C40F48040C0F30B0008B9A9
:100CF00001201AE0A06848B9681E616801EB410153
:100D0000B0FBF1F0401CC0F30B000CE0681E616802
:100D100001EBC10202EB0111B0FBF1F0401CC0F38A
:100D20000B0040F4804040F400402168C9694CF653
:100D3000FF72914308432168C861D4E90701084361
:100D40002168096821F0C001084321680860D4E9DE
:100D5000031008432168896848F2FF329143084331
:100D600021688860D4E9050108432168C96821F039
:100D7000FF0108432168C8602068006840F0010056
:100D80002168086000202064202084F83D000020B5
:100D9000206384F83E0000BF24E70000A086010025
:100DA00080841E0000093D0040420F002DE9F843F9
:100DB0000446894616461F46DDF82080FFF708FFE7
:100DC000054694F83D0020287ED11923012251497F
:100DD0002046009501F03FFA10B10220BDE8F883EB
:100DE00000BF94F83C00012801D10220F6E7012061
:100DF00084F83C0000BF2068006800F0010028B9BA
:100E00002068006840F001002168086020680068E0
:100E100020F4006021680860212084F83D00102043
:100E200084F83E000020206466626785608D20851E
:100E30003948E0622B4642464946204601F078F99F
:100E400008B10120CAE700BF002000902068406977
:100E5000009020688069009000BF00BF44E02A46EF
:100E60004146204601F0D3FA50B1206C042805D148
:100E70002068006840F40070216808600120ADE738
:100E8000606A007821680861606A401C6062608D59
:100E9000401E6085208D401E208520684069C0F37B
:100EA000800070B1208D60B1606A007821680861AF
:100EB000606A401C6062608D401E6085208D401E0F
:100EC00020852A46414600E022E0204601F090F9C4
:100ED00050B1206C042805D12068006840F40070EF
:100EE00021680860012079E7208D0028B7D12068AB
:100EF000006840F4007021680860202084F83D00FC
:100F0000002084F83E0000BF84F83C0000BF65E785
:100F1000022063E7020010000000FFFF10B586B05A
:100F20000446002002900390049005901549206823
:100F3000884225D100BF1448806940F0080012495A
:100F400088610846806900F00800019000BF00BF7A
:100F5000C0200290122003900320059002A90B48A4
:100F6000FFF796FC00BF0848C06940F4001006492E
:100F7000C8610846C06900F40010019000BF00BFBE
:100F800006B010BD0054004000100240000C0140AB
:100F9000034800680349097808440149086070471C
:100FA000380000204000002010B50848006840F0DC
:100FB000100006490860032000F0CAF80F2000F076
:100FC00007F800F02BF8002010BD000000200240C0
:100FD00070B504460E4800784FF47A71B1FBF0F01A
:100FE0000C490968B1FBF0F5284600F00BFC08B18C
:100FF000012070BD102C07D200222146501E00F0A7
:1010000069F80548046001E00120F2E70020F0E7FC
:1010100040000020440000203C00002008B500BF34
:101020001148806940F001000F49886108468069D5
:1010300000F00100009000BF00BF00BF0846C0697B
:1010400040F08050C8610846C06900F080500090B0
:1010500000BF00BF00BF0549486820F0E06040F0D5
:101060000070486000BF08BD001002400000014051
:1010700010B501460846002817DB00F01F030122C7
:101080009A400B4B440943F8242000BF00BF00BF27
:10109000BFF34F8F00BF00BF00BF00BF00BF00BF46
:1010A000BFF36F8F00BF00BF00BF00BF10BD0000C7
:1010B00080E100E001460846002809DB00F01F033C
:1010C00001229A4043099B0003F1E023C3F8002169
:1010D00000BF70472DE9F05F80460D461646002799
:1010E00001F07CFE074639462A46334601F00700E8
:1010F000C0F1070ABAF1040F02D94FF0040A01E067
:10110000C0F1070AD14600F1040ABAF1070F02D272
:101110004FF0000A01E0A0F1030AD4464FF0010AA3
:101120000AFA09FAAAF1010A0AEA020A0AFA0CFA08
:101130004FF0010B0BFA0CFBABF1010B0BEA030BAD
:101140004AEA0B042146404601F050FEBDE8F09FFC
:1011500000BF00F00702064B19684FF6FF03194065
:10116000044B0B4343EA0221014B196000BF704757
:101170000CED00E00000FA0570B504460D460CB910
:10118000012070BD5A48006800F00700A8420ED246
:101190005748006820F00700284355490860084672
:1011A000006800F00700A84201D00120E9E720789C
:1011B00000F0020002281DD1207800F0040004286D
:1011C00005D14C48406840F4E0604A4948602078C6
:1011D00000F00800082805D14648406840F46050F7
:1011E000444948604348406820F0F000A168084343
:1011F00040494860207800F0010078B36068012819
:1012000006D13C48006800F4003090B90120B8E7EE
:101210006068022806D13748006800F0007040B9C5
:101220000120AEE73348006800F0020008B9012051
:10123000A7E73048406820F00300616808432D4963
:101240004860FFF7C5FC064609E0FFF7C1FC801BBC
:1012500041F28831884202D9032092E707E025480D
:10126000406800F00C006168B0EB810FEDD12048C0
:10127000006800F00700A8420ED91D48006820F061
:10128000070028431A4908600846006800F0070074
:10129000A84201D0012074E7207800F0040004285F
:1012A00007D11448406820F4E060E1680843114920
:1012B0004860207800F00800082808D10D484068F0
:1012C00020F46050216940EAC1000A49486000F0FA
:1012D0002FF808494968C1F30311074A515CC84017
:1012E0000649086006480068FFF772FE002048E7DC
:1012F00000200240001002400A3B00084400002089
:101300003C000020014800687047000044000020B5
:1013100000B5FFF7F7FF04494968C1F30221034A0A
:10132000515CC84000BD0000001002401A3B00089C
:1013300070B500210022002400230020134D6968AD
:1013400001F00C05F5B1042D02D0082D19D101E0F2
:101350000F4819E00F4DC1F38346AB5D01F48035B2
:1013600055B10A4D6D68C5F340450B4E725D084D91
:101370005D43B5FBF2F402E0084D03FB05F42046A3
:1013800002E000BF024800BF00BF70BD0010024075
:1013900000127A00F83A0008083B000800093D00F6
:1013A000F8B504460CB90120F8BD207800F0010022
:1013B000002878D0F848406800F00C0004280CD0D1
:1013C000F548406800F00C00082811D1F248406848
:1013D00000F48030B0F5803F0AD1EF48006800F497
:1013E000003000285FD0606800285CD10120DBE776
:1013F00000BF6068B0F5803F06D1E748006840F460
:101400008030E549086028E0606858B9E248006823
:1014100020F48030E04908600846006820F480200D
:1014200008601AE06068B0F5A02F0BD1DA480068B8
:1014300040F48020D84908600846006840F48030B5
:1014400008600AE0D448006820F48030D24908607F
:101450000846006820F48020086000BF606888B1FA
:10146000FFF7B6FB054606E0FFF7B2FB401B64281A
:1014700001D9032098E7C848006800F4003000282C
:10148000F2D010E0FFF7A4FB054606E0FFF7A0FB53
:10149000401B642801D9032086E7BF48006800F498
:1014A00000300028F2D1207800F00200022857D145
:1014B000B948406800F00C0050B1B748406800F0EF
:1014C0000C00082818D1B448406800F4803098B95E
:1014D000B148006800F0020020B12069012801D065
:1014E000012061E7AC48006820F0F800616940EA3B
:1014F000C100A949086033E02069E8B10120A7498B
:101500000860FFF765FB054606E0FFF761FB401B3F
:10151000022801D9032047E79F48006800F0020035
:101520000028F2D09C48006820F0F800616940EA89
:10153000C1009949086013E0002098490860FFF74E
:1015400047FB054606E0FFF743FB401B022801D995
:10155000032029E79048006800F002000028F2D13B
:10156000207800F0080008282DD1A069B8B101202A
:101570008B490860FFF72CFB054606E0FFF728FBC8
:10158000401B022801D903200EE78348406A00F07F
:1015900002000028F2D0012001F0BEFA13E0002082
:1015A0007F490860FFF714FB054606E0FFF710FBD4
:1015B000401B022801D90320F6E67748406A00F074
:1015C00002000028F2D1207800F00400042873D132
:1015D00000277148C06900F0805070B900BF6E48A4
:1015E000C06940F080506C49C8610846C06900F08D
:1015F0008050009000BF00BF01276A48006800F4D7
:101600008070B0B96748006840F480706549086030
:10161000FFF7DEFA054606E0FFF7DAFA401B64281A
:1016200001D90320C0E65F48006800F480700028FC
:10163000F2D000BFE068012806D15748006A40F0A8
:1016400001005549086227E0E06858B95248006A2D
:1016500020F00100504908620846006A20F00400AA
:10166000086219E0E06805280BD14B48006A40F099
:101670000400494908620846006A40F00100086217
:101680000AE04548006A20F0010043490862084624
:10169000006A20F00400086200BFE068A0B1FFF714
:1016A00097FA054609E0FFF793FA401B41F28831AB
:1016B000884202D9032077E622E03748006A00F02A
:1016C00002000028EFD012E0FFF782FA054608E09A
:1016D000FFF77EFA401B41F28831884201D903208E
:1016E00062E62D48006A00F002000028F0D1012FC8
:1016F00005D12948C06920F080502749C86100BF42
:10170000E069C8B32448406800F00C00082860D0A5
:10171000E069022848D1002020490866FFF758FAFE
:10172000054606E0FFF754FA401B022801D90320C2
:101730003AE61948006800F000700028F2D1206AEB
:10174000B0F5803F07D11448406820F40030A1680C
:10175000084311494860D4E9080108430E49496823
:1017600021F4741108430C49486001200B490866B4
:10177000FFF72EFA054607E03DE0FFF729FA401B88
:10178000022801D903200FE60348006800F000702A
:101790000028F2D02FE0000000100240000042427A
:1017A0008004424200700040002014490866FFF7A0
:1017B0000FFA054606E0FFF70BFA401B022801D995
:1017C0000320F1E50E48006800F000700028F2D117
:1017D00011E0E069012800D1E6E50948466806F411
:1017E0008031206A814204D106F47011606A81421E
:1017F00001D00120D8E50020D6E5000000004242DB
:101800000010024070B504462546681EB0F1807F86
:1018100001D301200FE0681E4FF0E02148610F2145
:101820004FF0FF3001F0E2FA00204FF0E021886134
:1018300007200861002070BD7047704730B5024630
:101840000B4600BF92F83C00012801D1022030BDB8
:10185000012082F83C0000BF022082F83D001068A1
:1018600044681068816824F07004186804431068A4
:101870004460104D1068A8420BD01068B0F1804F42
:1018800007D00D4D1068A84203D00C4D1068A84237
:1018900005D121F080015868014310688160012062
:1018A00082F83D0000BF002082F83C0000BF00BF6E
:1018B000CDE70000002C014000040040000800407B
:1018C00010B504460CB9012010BD94F83D0028B9AC
:1018D000002084F83C00204600F026F8022084F81E
:1018E0003D00211D206801F0E9F9012084F846003F
:1018F00000BF84F83E0001213F20015540200155E2
:101900004120015500BF00BF012084F84200432060
:101910000155442001554520015500BF012084F8A0
:101920003D000020D0E7000038B504461649206885
:10193000884216D100BF1548806940F40060134901
:1019400088610846806900F40060009000BF00BF15
:10195000002211461920FFF7BDFB1920FFF7AAFB53
:1019600011E02068B0F1804F0DD100BF0748C06979
:1019700040F001000549C8610846C06900F0010057
:10198000009000BF00BF38BD002C01400010024095
:10199000014691F83D00012801D001207047022046
:1019A00081F83D00124B086898420BD00868B0F1EE
:1019B000804F07D00F4B0868984203D00E4B086841
:1019C00098420CD10868806800F00702062A0CD003
:1019D0000868006840F001000B68186005E00868BE
:1019E000006840F001000B6818600020D6E7000096
:1019F000002C01400004004000080040014691F81E
:101A00003D00012801D001207047022081F83D00EF
:101A10000868C06840F001000B68D860124B086885
:101A200098420BD00868B0F1804F07D00F4B086880
:101A3000984203D00E4B086898420CD10868806821
:101A400000F00702062A0CD00868006840F0010088
:101A50000B68186005E00868006840F001000B683A
:101A600018600020D0E70000002C01400004004076
:101A70000008004001460868C06820F001000A68BC
:101A8000D06000BF0868006A41F21112104050B9DE
:101A90000868006A9210104028B90868006820F0B1
:101AA00001000A68106000BF012081F83D0000209D
:101AB00070472DE9F04104460D46002700BF94F819
:101AC0003C00012802D10220BDE8F081012084F809
:101AD0003C0000BF022084F83D002068866826F0A4
:101AE000770626F47F46206886602868502833D021
:101AF0000CDC202850D004DC00284BD0102851D119
:101B000049E0302849D040284CD139E060282DD018
:101B1000702807D0B0F5805F03D0B0F5005F41D1E9
:101B20000DE041E0D5E902136A68206801F019F977
:101B30002068866846F077062068866034E0D5E93C
:101B400002136A68206801F00CF92068806840F48C
:101B500080402168886027E0EA686968206801F0B1
:101B600014F95021206801F007F91DE0EA6869685E
:101B7000206801F01DF96021206801F0FDF813E0F4
:101B8000EA686968206801F000F94021206801F0E6
:101B9000F3F809E000BF00BF00BF2968206801F02A
:101BA000EBF801E0012700BF00BF012084F83D00F1
:101BB00000BF002084F83C0000BF384684E72DE9D0
:101BC000F04104460D4614B90120BDE8F08194F8B7
:101BD0003D0028B9002084F83C00204600F052F86F
:101BE000022084F83D002068806844F207018843A1
:101BF00021688860211D206801F060F82068D0F815
:101C00000880206886692068076A286840EA080812
:101C100040F203308643A969A86840EA01200643E0
:101C200040F60C4086434FF2F0008643E969E868CD
:101C300040EA0120064328690001296A40EA013090
:101C4000064327F022076969686840EA01100743E4
:101C50002068C0F80880206886612068076201203B
:101C600084F8460084F83E0001213F200155012000
:101C700084F8420043200155012084F83D000020F3
:101C8000A3E7000010B586B0044600200290039040
:101C9000049005901E492068884237D100BF1D4836
:101CA000C06940F002001B49C8610846C06900F0E5
:101CB0000200019000BF00BF00BF0846806940F0ED
:101CC000080088610846806900F00800019000BFA4
:101CD00000BF30200290002003900120049002A950
:101CE0000D48FEF7D5FD00BF0C49486820F4406060
:101CF00040F0E06040F40060486000BF0022114600
:101D00001D20FFF7E7F91D20FFF7D4F906B010BD3D
:101D10000004004000100240000C0140000001409F
:101D20002DE9F04304460D4694F83E603F20075DE0
:101D300094F84280432010F804906DB9012E02D12E
:101D4000B8F1010F02D00120BDE8F083022084F831
:101D50003E0084F8420025E0042D0CD1012F02D171
:101D6000B9F1010F01D00120EEE702213F2001551A
:101D70004320015516E0012E07D1012F05D1B8F1FE
:101D8000010F02D1B9F1010F01D00120DCE70220DF
:101D900084F83E0002213F200155022084F84200D1
:101DA0004320015515B1042D18D10BE0012200216B
:101DB000206800F0C5FF2068C06840F0020021687C
:101DC000C86022E001220421206800F0B9FF2068E9
:101DD000C06840F004002168C86016E001220021BC
:101DE000206800F0ADFF01220421206800F0A8FF68
:101DF0002068C06840F002002168C8602068C068A0
:101E000040F004002168C86000BF00BF206800687F
:101E100040F0010021680860002095E730B50446D5
:101E20000D465DB900221146206800F089FF206848
:101E3000C06820F002002168C86023E0042D0BD1A7
:101E400000220421206800F07BFF2068C06820F099
:101E500004002168C86015E000221146206800F0E7
:101E60006FFF00220421206800F06AFF2068C0682C
:101E700020F002002168C8602068C06820F00400DB
:101E80002168C86000BF2068006A41F21111084053
:101E900050B92068006A8910084028B92068006895
:101EA00020F001002168086000BF0DB1042D28D189
:101EB0001DB9012084F83E000EE0042D03D101215C
:101EC0003F20015508E0082D03D101214020015594
:101ED00002E00121412001551DB9012084F8420092
:101EE0001AE0042D03D101214320015514E0082DEF
:101EF00003D10121442001550EE001214520015567
:101F00000AE0012084F83E0001213F200155012014
:101F100084F8420043200155002030BD704770B561
:101F200004462068C5682068066906F00200022899
:101F300019D105F00200022815D1401F216808615F
:101F4000012020772068806900F0030018B1204646
:101F5000FFF7E4FF05E0204600F097F8204600F088
:101F600095F80020207706F00400042819D105F028
:101F70000400042815D1C04321680861022020779D
:101F80002068806900F4407018B12046FFF7C6FF52
:101F900005E0204600F079F8204600F077F80020B0
:101FA000207706F00800082819D105F00800082855
:101FB00015D1C04321680861042020772068C069DA
:101FC00000F0030018B12046FFF7A8FF05E0204607
:101FD00000F05BF8204600F059F80020207706F06A
:101FE0001000102819D105F01000102815D1C04399
:101FF00021680861082020772068C06900F44070DB
:1020000018B12046FFF78AFF05E0204600F03DF8B2
:10201000204600F03BF80020207706F0010048B190
:1020200005F0010030B16FF0010021680861204621
:1020300000F02EF806F08000802809D105F080001D
:10204000802805D1C043216808612046FFF7F4FBD2
:1020500006F04000402809D105F04000402805D195
:10206000C04321680861204600F040F806F02000D7
:10207000202809D105F02000202805D1C04321687F
:1020800008612046FFF7D9FB70BD7047704700001C
:102090002DE9F04180461049086801F03FFB0446F5
:1020A00000220E4B01F01AFA02D800200A490860FB
:1020B0000949086801F032FB0646094A094B01F05C
:1020C000C9F8044601F094F8034908600121064864
:1020D000FEF76EFDBDE8F0810C0000200080764028
:1020E000CDCCCCCCCCCCAC3F000C0140704700BF79
:1020F000FEE7014608684069C0F38020B0B16FF484
:1021000080600A68506100200863202081F83D004B
:10211000002081F83E00086C40F00400086400BF15
:10212000002081F83C0000BF012070470020FCE740
:102130002DE9F84304460D4617469846E66A082EF0
:1021400004D0012E02D016F5803F06D12068006829
:1021500040F480702168086008E0206B122805D1E7
:102160002068006840F48070216808603B460022C7
:102170004FF001112046CDF8008000F06CF860B1FE
:102180002068006800F48070B0F5807F02D14FF4C1
:10219000007020640320BDE8F8832069B0F5804F0B
:1021A00004D105F0FE002168086112E005F44070DA
:1021B000F02141EAE0102168086143463A460B49A4
:1021C000204600F0A7F808B10120E4E7E8B2216852
:1021D000086143463A460549891F204600F09AF8AF
:1021E00008B10120D7E70020D5E700000800010072
:1021F00070B504460D46164625E02046FFF779FFE8
:1022000008B1012070BD681CE8B1FEF7E1FC801B3D
:10221000A84200D8BDB920684069C0F3800090B9D9
:1022200000202063202084F83D00002084F83E0038
:10223000206C40F02000206400BF002084F83C00A7
:1022400000BF0120DEE720684069C0F3800000285D
:10225000D3D00020D6E72DE9F04104460D461746BD
:102260001E46DDF8188038E0701CA8B3FEF7B0FCFD
:10227000A0EB0800B04200D876BBC5F307400128A8
:102280000AD120684069A9B20840A9B2884201D1A8
:1022900001200BE0002009E020688069A9B2084015
:1022A000A9B2884201D1012000E00020B84214D137
:1022B00000202063202084F83D00002084F83E00A8
:1022C000206C40F02000206400BF002084F83C0017
:1022D00000BF0120BDE8F081FFE7C5F307400128FA
:1022E0000AD120684069A9B20840A9B2884201D148
:1022F00001200BE0002009E020688069A9B20840B5
:10230000A9B2884201D1012000E00020B842ABD040
:102310000020DFE72DE9F04104460D4616461F4632
:1023200058E020684069C0F38020E8B12068006868
:1023300040F40070216808606FF480602168486193
:1023400000202063202084F83D00002084F83E0017
:10235000206C40F00400206400BF002084F83C00A2
:1023600000BF0120BDE8F081701C90B3FEF730FC87
:10237000C01BB04200D866BBC5F3074001280AD194
:1023800020684069A9B20840A9B2884201D1012061
:102390000BE0002009E020688069A9B20840A9B2DA
:1023A000884201D1012000E0002090B90020206384
:1023B000202084F83D00002084F83E00206C40F08E
:1023C0002000206400BF002084F83C0000BF0120F2
:1023D000C8E7FFE7C5F3074001280AD12068406934
:1023E000A9B20840A9B2884201D101200BE0002027
:1023F00009E020688069A9B20840A9B2884201D1E9
:10240000012000E0002000288BD00020AAE770B552
:1024100004460D46164625E02046FFF76AFE08B141
:10242000012070BD681CE8B1FEF7D2FB801BA842FA
:1024300000D8BDB920684069C0F3C01090B9002031
:102440002063202084F83D00002084F83E00206CAA
:1024500040F02000206400BF002084F83C0000BF52
:102460000120DEE720684069C0F3C0100028D3D007
:102470000020D6E708B50F20FEF750F930202E498E
:102480000870642001230A464E2100902B48FEF775
:102490008DFC00F055F80520FEF740F900F050F8EB
:1024A0006420FEF720F900F04BF820202249087044
:1024B000642001230A464E2100902048FEF776FC56
:1024C00000F03EF800F03CF8C0201B490870642082
:1024D00001230A464E2100901848FEF767FC00F0E1
:1024E0002FF8002000F01CFD00F0D4FC0020124961
:1024F0000870642001230A464E2100900F48FEF721
:1025000055FC00F01DF860200B4908706420012381
:102510000A464E2100900948FEF748FC00F010F8EA
:10252000012000F0FDFC3220FEF7F8F800210846FB
:1025300000F070FC08BD00000800002048000020EA
:1025400008B51048007840F004000E490870642077
:1025500001230A464E2100900B48FEF727FC0B484A
:10256000007840F0F30007490978084005490870F1
:10257000642001230A464E2100900348FEF716FC12
:1025800008BD0000080000204800002009000020CD
:1025900000B585B00020019002900390049000BF28
:1025A0005048806940F010004E49886108468069B3
:1025B00000F01000009000BF00BF00BF0846806917
:1025C00040F0200088610846806900F020000090FB
:1025D00000BF00BF00BF0846806940F0040088616A
:1025E0000846806900F00400009000BF00BF00BFF3
:1025F0000846806940F0080088610846806900F05C
:102600000800009000BF00BF0022A4213648FEF75A
:10261000D9FA012210213448FEF7D4FA0022012110
:102620003248FEF7CFFA012211033048FEF7CAFA0A
:102630004FF4604001900320029001A92C48FEF75E
:1026400027F949F6033001900320029001A926489A
:10265000FEF71EF9B42001900120029000200390A3
:102660000320049001A92048FEF712F94FF481607D
:102670000190204802900020039001A91A48FEF71B
:1026800007F94020019000200290039001A916480C
:10269000FEF7FEF841F201000190012002900020B7
:1026A00003900320049001A91048FEF7F1F84EF6BC
:1026B0000E7001900320029001A90C48FEF7E8F883
:1026C000002201210920FEF705FD0920FEF7F2FC9A
:1026D000002202212820FEF7FDFC2820FEF7EAFC5C
:1026E00005B000BD0010024000080140000C014090
:1026F000001001400000211010B50B480B49086084
:102700000B484860002109488160C1604FF4804156
:102710000161002141618161C1610162FEF75EFAE0
:1027200008B1FDF7F8FF10BD00540040480000203C
:10273000A086010000B587B00020039004900590AA
:1027400006900190029015481549086009204860DC
:102750000021134881604FF6FF71C16000210161C3
:1027600041618161FFF7ACF808B1FDF7D4FF4FF488
:102770008050039003A90A48FFF79BF908B1FDF7C1
:10278000CAFF00200190029001A90548FFF756F802
:1027900008B1FDF7C0FF07B000BD0000002C0140EC
:1027A0009C00002000B587B00020039004900590A5
:1027B0000690019002904FF0804014490860472035
:1027C00048600021114881604FF6FF71C16000210F
:1027D00001618161FFF774F808B1FDF79CFF4FF4C8
:1027E0008050039003A90948FFF763F908B1FDF78A
:1027F00092FF00200190029001A90448FFF71EF803
:1028000008B1FDF788FF07B000BD0000E40000201C
:1028100000B58BB0242102A8FDF7BEFD002000907A
:1028200001901A481A4908600020486000211848A1
:1028300081604FF6FF71C1600021016180218161DB
:1028400003200290022003900120049000200590B4
:102850000A2006900220079001200890002009908D
:102860000A200A9002A90A48FFF7A9F908B1FDF762
:1028700052FF00200090019069460548FEF7DEFFF8
:1028800008B1FDF748FF0BB000BD00000004004098
:102890002C01002000BFFEE700BFFEE710B50024BA
:1028A000002000F04BF8044644F0030421460020C9
:1028B00000F0A0F8012204210548FEF783F99620D4
:1028C000FDF711FF00F006F800F01EF810BD000043
:1028D0000008014008B50AA00068009000221021FD
:1028E0000848FEF76FF99DF8000000F029F9012073
:1028F000FDF7F9FE012210210248FEF763F908BD39
:10290000E20000000008014008B50AA0006800903D
:10291000002210210848FEF755F99DF8000000F04C
:102920000FF90120FDF7DFFE012210210248FEF71A
:1029300049F908BDE10000000008014070B50446F7
:102940000026002210210A48FEF73CF9204600F03C
:10295000F7F80646072C04D0FF25284600F0F0F8CB
:102960000646012210210248FEF72CF9304670BDC0
:10297000000801402DE9F04107460D4616460022A9
:1029800010210B48FEF71EF9384600F0D9F8002454
:1029900005E0FF2000F0D4F82855601CC4B2B44212
:1029A000F7DB012210210248FEF70CF9BDE8F081A7
:1029B0000008014008B50DA0006800900022102119
:1029C0000B48FEF7FFF89DF8000000F0B9F8012071
:1029D000FDF789FE732000909DF8000000F0B0F82C
:1029E000012210210248FEF7EDF808BD500000005A
:1029F0000008014070B505460C4645F02005002250
:102A000010210748FEF7DEF8284600F099F8204626
:102A100000F096F8012210210148FEF7D3F870BDAE
:102A2000000801402DE9F04105460E46174645F0E5
:102A30002005002210210C48FEF7C4F8284600F0BB
:102A40007FF80120FDF74FFE002404E0305D00F028
:102A500077F8601CC4B2BC42F8DB012210210248A6
:102A6000FEF7B0F8BDE8F0810008014010B5002283
:102A700004212548FEF7A6F841F28830FDF733FE21
:102A80000A210020FFF7B6FF41F28830FDF72BFE48
:102A900002210120FFF7AEFF02210846FFF7AAFF3F
:102AA00001210320FFF7A6FF5F210420FFF7A2FF0B
:102AB000FFF780FF00211D20FFF79CFF00211C2055
:102AC000FFF798FF70210720FFF794FF4C210520A6
:102AD000FFF790FF06210846FFF78CFF03220B4902
:102AE0001020FFF79FFF032208490B20FFF79AFFF2
:102AF00002211220FFF77EFFFFF7D0FE0022012106
:102B00000348FEF75FF810BD0008014000000020F8
:102B1000000C01407047000008B508490968C90861
:102B20004FF47A72B1FBF2F14143009100BF00BF54
:102B300000994A1E00920029F9D108BD44000020E6
:102B400030B502460024082526E06006040E02F097
:102B5000800018B180201449086003E080201249E9
:102B6000091D08600120FDF7BEFD20200E49086008
:102B70000D480838006800F0400008B144F0010436
:102B80000120FDF7B0FD20200749091D0860012044
:102B9000FDF7A9FD5006020E281EA5F10101CDB2D8
:102BA000D3D1204630BD000010080140704710B559
:102BB000FEF7EEF910BD00B58FB0282105A8FDF78E
:102BC000EBFB14216846FDF7E7FB012005900004AC
:102BD0000690002007900120099002200C90C1036C
:102BE0000D914FF4E0110E9105A8FEF7D9FB08B145
:102BF000FDF791FD0F20009002200190002002902F
:102C00004FF4806003900020049002216846FEF794
:102C1000B3FA08B1FDF77FFD0FB000BD70470000AB
:102C200010B50248FFF77BF910BD00009C000020A2
:102C300010B51D48006800B21C49B1F90010884267
:102C400009DD1B480078052816DA19480078401C71
:102C50001749087010E01448006800B21349B1F930
:102C60000010884208DA12480078002804DD104875
:102C70000078401E0E4908700B48006800B20B49EE
:102C8000088000200B490860012300220321084826
:102C9000007800F0A7F94FF6E850FDF724FD06484C
:102CA000FFF73DF910BD0000240400403000002073
:102CB0002C000020340000202C01002010B50268F8
:102CC0001C4B984208D0B0F1804F05D01A4B984267
:102CD00002D01A4B984203D122F070024B681A437B
:102CE000144B984208D0B0F1804F05D0124B984257
:102CF00002D0124B984203D122F44072CB681A439F
:102D000022F080034C6943EA040202608B68C362CC
:102D10000B688362074B984201D10B69036301235F
:102D20004361036903F001031BB1036923F001034D
:102D3000036110BD002C0140000400400008004069
:102D400030B501F01F05012404FA05F3046A9C4321
:102D50000462046A01F01F0502FA05F52C430462BF
:102D600030BD30B50C46816821F47F4142EA03252D
:102D700025432943816030BD0A46816821F07001F6
:102D800042F0070319438160704730B50B46144683
:102D9000026A056A25F001050562816921F0F001EA
:102DA00041EA041122F00A021A438161026230BD35
:102DB00030B50B461446026A056A25F01005056217
:102DC000816921F4704141EA043122F0A00242EA13
:102DD00003128161026230BD00BFFEE70248006855
:102DE000C0F30220704700000CED00E010B5002891
:102DF00004DB0A07130E054A135406E00A07140EF3
:102E0000034A00F00F031B1FD45410BD00E400E080
:102E100018ED00E038B505460C4600201A49087048
:102E2000642001230A464E2100901848FDF7BEFF9A
:102E3000FFF786FB75B134B11548007840F0F0001B
:102E40001149087014E01248007840F0E0000E4983
:102E500008700DE034B10E48007840F0D0000A4907
:102E6000087005E00A48007840F0C0000649087084
:102E700064200123044A4E2100900448FDF796FF88
:102E8000FFF75EFB38BD000008000020480000206E
:102E90000900002008B500200F49087064200123B4
:102EA0000A464E2100900D48FDF780FFFFF748FBD2
:102EB0006420FDF718FC10200749087064200123E6
:102EC0000A464E2100900548FDF770FFFFF738FBDA
:102ED0000420FDF723FC08BD080000204800002066
:102EE0001FB50BA30FCB8DE80F0000208DF80F004E
:102EF0000021084600F0BCF8684600F041F80121C6
:102F0000002000F0B5F8684600F03AF81FBD000058
:102F100020202020202020202020202020202000D1
:102F200038B50446002014490870642001230A467D
:102F30004E2100901148FDF739FFFFF701FB6CB9F6
:102F400080200D490870642001230A464E2100901C
:102F50000A48FDF72BFFFFF7F3FA0CE0F0200649D3
:102F60000870642001230A464E2100900348FDF7B3
:102F70001DFFFFF7E5FA38BD0800002048000020DB
:102F80001CB504460020019026E0207800F0F000F7
:102F900040F00D008DF80400207800F0F00040F0C3
:102FA00009008DF80500207800F00F000D2141EA9E
:102FB00000108DF80600207800F00F00092141EA8A
:102FC00000108DF807006420042301AA4E21009010
:102FD0000348FDF7EBFE641C20780028D5D11CBD0A
:102FE000480000202DE9F05F04460D4691469A46C0
:102FF000A34601275146484600F03AF804E019A0DC
:10300000FFF7BEFF681EC5B2002DF8D104E00A200C
:103010009BFBF0FB781CC7B2BBF1000FF7D134B9B2
:103020005146484600F024F80FA0FFF7A9FF3E469E
:103030003046FDF7D1F88046781CC0B207460146FD
:1030400023460AA24046FDF71DF95146484600F0C6
:103050000FF84046FFF794FF4046FDF7ECF8BDE857
:10306000F09F0000200000003000000025640000F8
:103070007CB505460E46002001901EB105F14000CA
:10308000C4B200E02C4604F0F00040F08400144983
:10309000097808438DF8040004F0F00040F0800047
:1030A0000F49097808438DF8050004F00F0004214A
:1030B00001EB00100A49097808438DF8060004F076
:1030C0000F000749097841EA00108DF807006420D5
:1030D000042301AA4E2100900248FDF767FE7CBD43
:1030E0000900002048000020FDF75EFFFFF763FDA8
:1030F000FFF74EFAFFF756FBFFF7FEFAFFF71AFB52
:10310000FFF786FB0B48FEF743FC012211030A4838
:10311000FDF758FDFFF7AEF900F010F8FFF7A6FC39
:1031200000F032F843F69820FDF7F8FA00F04AF87C
:1031300000BFFEE7E4000020000C014010B50021B4
:103140000846FFF795FF0CA0FFF71AFF00210320A8
:10315000FFF78EFF09A0FFF713FF00210720FFF7FD
:1031600087FF07A0FFF70CFF00210C20FFF780FF6F
:1031700004A0FFF705FF10BD3942000031324200C4
:10318000313342004400000010B501200A490871A3
:103190000A48FEF733FC44F6206405E00848046062
:1031A0000120FDF7BBFA641E40F264408442F5DA68
:1031B00001200149087110BD0C0000209C00002076
:1031C0002C2C014010B540F2644405E00648046030
:1031D0000120FDF7A3FA641C44F620608442F5DD6B
:1031E0000248FEF747FC10BD2C2C01409C0000203B
:1031F00021F00042A2F16052B2F5801F01F00043BD
:1032000028BFD2F17F6C0BD95FEA001C43EAC202EF
:1032100042EB507018BF704728BF20F00100704784
:10322000B2F5801FBCBF184670474FEA410C1CF531
:10323000001F02D2084600F05ABC70B500F0FAF840
:1032400000000089FFF7F6BF4FF00040A0F58000B6
:103250007047000010B591EA030F48BF83F00043A8
:1032600000F17A81841A71EB030C05D2121943EB39
:103270000C03001B61EB0C01DFF824E14FEA115451
:10328000A4EB135C1EEA430F18BF9EEA445F73D0A1
:1032900023EA0E03DCF1200E21EA045143F48013EB
:1032A00032D322FA0CFE10EB0E0023FA0CFE41EB97
:1032B0000E01CCF1200E03FA0EFE10EB0E0051F1C0
:1032C0000001B1F5801FCCF1200E32D201EB045188
:1032D00012FA0EF2BDE8104058BF7047401C38BFCC
:1032E0005FEA420218BF7047002814BF20F00100B7
:1032F00041F100014FEA410313F5001F38BF704749
:10330000A1F1C04100F0E4B8012A43EB0302ACF1A3
:10331000200CDCF11F0E32BF4FF0000E23FA0CF32D
:1033200010EB030041EB0451B4EB115FD0D0A1EBE3
:10333000045101F5801149085FEA300001EB0451A6
:103340000ED350F1000038BF12FA0EFE08D1BDE8CE
:103350001040C9E7401C38BF5FEA4202CAD1C3E748
:10336000BDE810404FEA410313F5001F38BF704716
:10337000A1F1C04100F0ACB89EEA445F08D011EA68
:103380005E0FBDE8104004BF01F00041002070470F
:10339000BDE8104070B500F04DF800BF64FBBE3EC4
:1033A0000000E0FF491058BFC1F140415B1058BF19
:1033B000C3F140438B42EFF30080704751EA030CA6
:1033C00017D41CF5801F58BFBCF5801F00F1068084
:1033D000994218BF704708BF9042704707D711F550
:1033E000801F58BF13F5801F19D499427047894236
:1033F00070471CF5801F08D5BCF5801FF7D58B42A0
:1034000018BF704708BF824270474FF4001C1CEB86
:10341000410F38BF1CEB430F01D28B42704770B590
:1034200000F008F8922449004FF000514FF080530B
:10343000FFF7B8BF0EF1020E2EF0030E5EF8046B1C
:10344000364205D4012A43EB030515F5001F12D8B7
:10345000012841EB010C1CF5001F0CD80ED14FEADE
:10346000D17C15F5001F0CEB4C0C0CF1020C08BFC5
:103470004CEBD37C04E04FF0080C01E04FEAD37C26
:103480000CEB4C0526FA05F606F00706B6F1040C1F
:1034900006D20EEB860CBDE870404CF0010C604784
:1034A000DFE80CF0090B02024FF000414FF0000082
:1034B000A1F5002170BD19461046012851EB010409
:1034C00018BFD4F5001484BF002001F0004170BD86
:1034D0000808A0F500114FEA3101704753EA010CCA
:1034E00017D41CF5801F58BFBCF5801F00F1068063
:1034F0008B4218BF704708BF8242704707D713F549
:10350000801F58BF11F5801F19D48B4270479B4212
:1035100070471CF5801F08D5BCF5801FF7D5994270
:1035200018BF704708BF904270474FF4001C1CEB57
:10353000430F38BF1CEB410F01D2994270470FB4C3
:103540000CBC03BCFFF76BBF10B591EA030F48BF7B
:1035500083F000433FF586AE841A71EB030C07D26B
:1035600012198CF0004C43EB0C03001B61EB0C01B7
:10357000DFF8A4E14FEA1154A4EB135C1EEA430FF9
:1035800018BF9EEA445F00F0B08023EA6E03524207
:1035900021EA0451C3EB6E0338BF5B1EDCF1200E41
:1035A00025D322FA0CFE10EB0E0043FA0CFE41EB81
:1035B0000E01CCF1200E03FA0EFE10EB0E0051F1BD
:1035C0000001CCF1200E29D412FA0EF201EB0451C5
:1035D000BDE8104058BF7047401C1CBFB2F1004FFF
:1035E000704700280CBF491C20F00100704712EB07
:1035F000020E43EB030218BF4FF0010E4EEA4202E7
:10360000ACF1200CDCF11E0E54D943FA0CFE10EB89
:103610000E0051F1FF31CCF11E0ED5D50EF1010E89
:1036200012FA0EFE404141EB010101EB445C5FEAFE
:103630005C5C10D910EBDE7001EB045138BFBEF1B9
:10364000004FBDE8104018BF704700280CBF491C50
:1036500020F00100704730D24FEAD42C11F5001150
:1036600024F400641BD0B1FA81F20B3AA41AA41E10
:10367000D2F12003914030FA03F31943904001EB5B
:10368000CC71002C01EB0451BDE81040A8BF70477D
:1036900001F1C0414FF0000001F000417047B0FA65
:1036A00080F310FA03F100D110BDE41A173C48056D
:1036B000C90AE4E701EB045110BD491001EB0451C4
:1036C000BDE810404FEA300002E04FF000017047C3
:1036D0004A0008BF0042F8D0B2F5001F28BF70476B
:1036E00001F000414FF0000070479EEA445F07D0B0
:1036F00011EA5E0FBDE8104004BF002100207047B2
:10370000BDE8104070B5FFF795FE00BF40DFF63E04
:1037100083F00041104670470000E0FF43004FEA8D
:10372000D30C4FEA3C0C43401FBF40070CF16051E3
:1037300013F0FE4F70471CF0006F03D100200CF017
:10374000004170470CF0004343EA507010B540EA66
:10375000CC0000F086F900BF000000924FEA0001A3
:10376000FFF7B6BE4FF000414FF00000A1F5002179
:10377000704700004FF47F0C1CEAD0121EBF1CEAF9
:10378000D11392EA0C0F93EA0C0F00F0858090EAB7
:10379000010F48BF42F4807240F4000C41F4000075
:1037A0002CF07F4120F07F4000B58142A2EB030264
:1037B0000FF2081CACEB504EC0F100009EF800E088
:1037C0004FEA4E0E00FB0EFC38BF49004FEA2C1C9E
:1037D00002F5FA020CFB0EF34FEACE1E4FEA112C53
:1037E0004FEAC1210EEB635E42EB22420EFB0CFC62
:1037F0004FEA1C5300FB03114FEA112C4FEA013131
:103800000EFB0CFC4FEADC4C00FB0C11C14228BF44
:1038100009184CEB03335DF804EB10EB410143EB6B
:10382000C250B2F57C0F38BF704729D512F0F00FA7
:103830001CBF00F1C04000F000407047008182834F
:103840008485868788898B8C8D8E8F9192939596AF
:1038500097999A9C9D9FA0A2A3A5A7A8AAACAEB039
:10386000B2B3B5B7B9BCBEC0C2C5C7C9CCCED1D43E
:10387000D7D9DCDFE2E6E9ECF0F3F7FAFE0000006E
:103880004FEA400C0CF1807CBCF17E4F28BF7047A2
:10389000B0F1C04000F02BB990EA010F0CEAD1134F
:1038A00048BF42F48072624538BF634507D213F4C3
:1038B0007F0F16D080EA010000F00040704710B57D
:1038C00000F0CFF8097EFC3E00F005B880EA010068
:1038D00000F00040704780EA010000F0004000F076
:1038E00006B912F47F0F04BF0248704780EA010056
:1038F00000F0FDB80000C07FC10DD1F19E0206DBD3
:103900004FEA002343F0004323FA02F070470042DD
:1039100007D54FEA4001B1F1FE4F02D24FF000004F
:10392000704710B500F09DF8499224800020704740
:103930006FEA200070470000B0FA80F310FA03F23B
:10394000C3F19D030AD0D90501EB1220530638BFFD
:10395000704700F1010008BF20F00100704700002F
:103960004FF47F0C1CEAD0121EBF1CEAD11392EA5E
:103970000C0F93EA0C0F00F0478090EA010F48BF4C
:1039800042F480724FF0004C4CEA00204CEA0121D6
:1039900002EB0302A0FB0113A2F50002002918BFED
:1039A00043F001035B0028BF4FEA330342EB22429E
:1039B0005FEA132C4CEBC2502EBFBCEB436FB2F549
:1039C0007C0F70474FEA036CBCF1004F08BF20F03A
:1039D0000100B2F57C0F38BF70470BD582F0FF02B3
:1039E00012F5803FC8BF704700F1C040D8BF00F05B
:1039F0000040704700F5000C5FEA4C0C48BF704770
:103A0000B0F1C04000F073B890EA010F0CEAD11396
:103A100048BF42F48072624538BF634504D280EAF1
:103A2000010000F00040704710B500F01AF800BF28
:103A30008900013E00F007B800F009B85FEA410CC8
:103A40005FEA1C6C08D080EA010000F050B85FEA21
:103A5000400C5FEA1C6CF6D14FF00040A0F58000EE
:103A600070470EF1020E2EF0030E5EF8044B244256
:103A700004D44FEA4102B2F17F4F11D84FEA40031C
:103A8000B3F17F4F0CD80ED14FEAD07CB2F17F4F0B
:103A90000CEB4C0C0CF1020C08BF4CEBD17C04E09D
:103AA0004FF0080C01E04FEAD17C0CEB4C0324FAF8
:103AB00003F404F00704B4F1040C06D20EEB840CFA
:103AC000BDE810404CF0010C6047DFE80CF007083F
:103AD00002024FF00040A0F5800010BD08464200F1
:103AE00018BFD2F1807288BF00F0004010BDFF21E6
:103AF00041EAD050C00570470203040506070809D3
:103B00000A0B0C0D0E0F1010010200000000000047
:103B1000000001020304060708090000000001027A
:103B200003040000443B000800000020480000009F
:103B3000280100088C3B0008480000209007000086
:103B400044010008B3B401000000000000000000C0
:103B50000000000000000000FFFF9411CA08650487
:103B6000ED02320201000F001E003C005A007800F6
:103B70000000000000000000000000000000000045
:0C3B8000100000000100000000127A009C
:04000005080000ED02
:00000001FF
